:02000004080AE8
:1000000000000A08E0DA0A08000006000600050100
:080010000402BD0B000000001A
:04001800D0BD0A0845
:1000200009480A4908B5884205D0094A824202D0E7
:10003000121A08F097FD0748074A0021121A08F023
:10004000B9FD064808BD00BF000000209CD70A0883
:100050001C030020200300207910002079100020CC
:1000600070B506F05BFF0025054E064CA41BA408E6
:10007000A54200D170BD56F8043B98470135F7E71B
:1000800064D70A0884D70A0802F03EBF08B504F016
:10009000E9FBBDE8084006F003BF05F0DDBB05F055
:1000A000DBBB05F0E1BB0078B0FA80F04009704797
:1000B0000123037070470368C9B29B6818477047F3
:1000C00038B504460D4607F059F8217805F08CFF45
:1000D00007F054F8036829469B68984707F04EF8E4
:1000E00005F08AFF07F04AF82178022205F079FF2F
:1000F00007F044F803685B69984784B207F03EF85C
:1001000003685B69984740EA042080B238BD10B5A7
:100110000446017007F032F805F034FF062120464E
:10012000FFF7CEFF542807D107212046FFF7C8FF6D
:10013000B0F5806F08BF002010BD10B50521FFF796
:10014000BFFF0446C0F30B0007F0BCFF4FF0765131
:1001500008F00CF8E204034604D54FF0874107F09D
:10016000FBFE0346184610BD08B5FFF7E6FF07F093
:1001700065FB0022064B07F0B9FB0022054B07F098
:10018000DFFC0022044B07F0FBF907F091FE08BDED
:1001900000002240000014400000404008B506F076
:1001A000EDFFBDE8084005F027BFF02241F018013F
:1001B0004170C270704710B5044606F0DFFF6178E9
:1001C000BDE8104005F010BF10B50C46FFF7F3FF77
:1001D00006F0D4FFE121FFF76EFF06F0CFFF0368C2
:1001E00021469B689847BDE81040FFF7D7BF10B580
:1001F000044606F0C3FF0122617805F0F2FE06F026
:10020000BDFF03685B699847C0B210BD10B50446D6
:1002100011B1F021FFF7D8FF2046BDE81040FFF7ED
:10022000E6BF10B50446C321FFF7CEFF2046BDE868
:100230001040FFF7DCBF70B504460E46642531461A
:100240002046FFF7E3FFC30703D5013D02D1012399
:10025000A37070BD142005F0ADF8F0E7002208B5DA
:100260008270FFF7A8FF06F089FFF021FFF723FF58
:10027000BDE80840FFF792BF10B504460121FFF723
:10028000DAFF2046FFF797FF06F078FFB421FFF76B
:1002900012FFFFF783FF00212046FFF7CCFF2070FD
:1002A000C0F3400010BD38B505460C460121FFF7EC
:1002B000C2FF2846FFF77FFF06F060FFA521FFF78A
:1002C000FAFE06F05BFF036821469B689847BDE88D
:1002D0003840FFF763BF10B504460121FFF7ABFFBD
:1002E0002046FFF768FF06F049FF9621FFF7E3FE7F
:1002F000FFF754FF00212046FFF79DFF2046E12134
:10030000FFF762FF20460021FFF795FF2046BDE87A
:100310001040FFF76CBF70B50C4655210646FFF73D
:10032000C2FF651E073415F8011F3046FFF7BBFFFB
:10033000A542F8D170BD0023FF22437302730371FD
:1003400043718371C371037243728372C3727047C6
:100350002DE9F74F457B04460E461DB1002003B042
:10036000BDE8F08FFFF788FF0028F7D00121204675
:10037000FFF761FF2046E178FFF795FF4FF0FF0997
:100380004FF0010805F0070308FA03FA94F90C305E
:100390005FFA85FBAB42C5F3C4072FDDE3191B7978
:1003A00013EA0A0F14BF0123002300212046019302
:1003B000FFF741FF2046FFF7FEFE06F0DFFE782143
:1003C000FFF779FE06F0DAFE019BD901FFF773FE15
:1003D000FFF7E4FE00212046FFF72DFF8106C0F362
:1003E0008012C0F3C7130DD5002AB7D173B9CB461D
:1003F000E3191B79D94623EA0A030CE00CBF012359
:100400000023D2E7002AF1D1002BF1D0E3191B79A8
:1004100043EA0A03DBB201352744402D3B71B1D1D9
:10042000B9F1FF0F08BF012384F80C9008BF637374
:10043000013E231D0C3413F8012BA34206F8012FB3
:10044000F9D101208BE702460144002030B59142EA
:1004500013D0082412F8015B80EA050313F0010FA2
:100460004FEA50001CBF80F08C03D8B2631E13F01B
:10047000FF044FEA5505EFD1E9E730BD70B50446FA
:100480000E461546FFF7F8FE31462046FFF743FFBC
:1004900001212046FFF7CFFE2046F521FFF703FF9D
:1004A00020464821FFF7FFFEFF212046FFF7FBFE15
:1004B0002046FFF710FF287070BD0000000000000C
:1004C0002DE9FF470B780446102B0F46164619D02E
:1004D000282B15D14FF000092046FFF7CDFE3946F5
:1004E0002046FFF718FF44212046FFF7DCFE4FF4BB
:1004F000C87005F019FA2046FFF7BEFE054620B980
:10050000002542E04FF00109E6E739462046FFF7B3
:1005100002FF0DF10408BE212046FFF7C4FE0027AC
:10052000C2462046FFF7D7FE0137092F08F8010B16
:10053000F7D108215046FFF786FF9DF80C30834223
:10054000DED1BDF80400B9F1000F22D09DF80B30C8
:10055000C000102B08D120F00F000004000C00F1A7
:100560000C039DF80A00181A07F056F90022144BE4
:1005700007F0BCF910A3D3E9002307F0B7F9002274
:10058000104B06F0FDFFC6E90001284604B0BDE8A7
:10059000F0879DF8083013F0600302D120F00700C7
:1005A000E2E7202B02D120F00300DDE7402B08BF5B
:1005B00020F00100D8E700BFCDCCCCCCCCCCFC3FA8
:1005C0000000B03F0000404070B50E460978044678
:1005D0003A2902D00025284670BD03FA02F5FFF73C
:1005E0004BFE31462046FFF796FE01212046FFF7DD
:1005F00022FEEDB25A212046FFF755FEE943204680
:10060000C9B2FFF750FE29462046FFF74CFE2046B0
:10061000FFF761FEAA28DDD12046FFF75CFE054604
:100620002046FFF729FED6E737B50B780546122B93
:100630000C4616D03A2B14D0052B1BD10DF1060217
:10064000FFF71CFF214628460DF10702FFF716FFB2
:100650009DF806009DF80730C31A5842584103B070
:1006600030BD214628460DF10702FFF707FF9DF830
:100670000700F4E7FF20F2E770B50E460446154682
:10068000FFF7D2FF3378122B03D03A2B0BD0002088
:1006900070BD2C44A27B01239340DBB2034214BF04
:1006A00001200020F4E72C44227CF4E71068704716
:1006B00003681847012A03D0022A03D0002070479C
:1006C0000160FBE70B680360F8E770B5044600F1D2
:1006D0008C0500F10C06B54204D0103D284605F00B
:1006E00032FEF8E7204670BD30B585B00446089864
:1006F00060B1406850B1856845B1CDE90241CDE9AE
:100700000023C4686A4601AB02A9A04705B030BD0A
:10071000022A38B5044607D0032A11D0012A01D194
:100720000B682360002038BD0C200D68FFF7B5FC76
:1007300003460028F5D095E8070083E80700F0E7B6
:1007400000680028EED00C2106F05DFDEAE77FB5D9
:100750000268536890685E1000EB6305DB0714685D
:1007600048BF8359684648BF1C5905F066FE694674
:100770002846A0470446684605F0E5FD204604B03B
:1007800070BD000013B50446044B1B788DF8003093
:100790003C2305F043FA204602B010BD240300209C
:1007A00013B50446054B0A461B7805498DF8003001
:1007B0003C2305F033FA204602B010BD240300208C
:1007C0001FC00A080EB403B503AB53F8042B002175
:1007D000019305F04DFD02B05DF804EB03B07047E6
:1007E00010B58368044613B103220146984720469A
:1007F00010BD38B50568044635B12846FFF7F0FF4F
:100800001021284606F0FFFC2046BDE838401421A0
:1008100006F0F9BC10B5436904469BB1586804F072
:1008200089FD78B963695A7C12B9586804F08AFD69
:100830006369586804F08EFD00236069636108B144
:10084000FFF7D7FF606908B1FFF7D3FF201DFFF75F
:10085000C7FF204610BD00002DE9F84304460E46B0
:10086000194905F0BAFD184904F1100005F0B5FD6D
:10087000154904F1200005F0B0FD04F140071249CC
:1008800004F1300005F0A9FD38460F4905F0A5FD3B
:10089000DFF8349004F1500504F1D00828464946A9
:1008A000103505F09AFDA845F8D13146384605F0D7
:1008B000CFFD0023C4E934334FF411532046A4F88C
:1008C000D830BDE8F88300BFB6C10A082DE9F84F5B
:1008D00004460F461A491646984605F07EFD18490B
:1008E00004F1100005F079FD154904F1200005F030
:1008F00074FD04F14009124904F1300005F06DFD6A
:1009000048460F4905F069FDDFF834B004F15005A1
:1009100004F1D00A28465946103505F05EFDAA4577
:10092000F8D14146484605F093FD00232046C4E92E
:10093000343384F8D87084F8D960BDE8F88F00BFEC
:10094000B6C10A0830B5134604460A4685B001B15F
:100950000132D4F8D4506846053504F1400104EB67
:10096000051505F0FDFD6946284605F08BFD684636
:1009700005F0E9FCD4F8D4000130C4F8D40005B087
:1009800030BD10B501320446403005F0C9FDC4F851
:10099000D00010BDF8B50026044637463A4620463A
:1009A00094F8D810FFF7EDFF051E07DA3A46204607
:1009B00094F8D910FFF7E5FF051E07DB2A463946F4
:1009C00020460136FFF7BEFF082E07D104F1900143
:1009D00004F1300005F03CFD3046F8BD2F46DDE760
:1009E00012B101234B717047CB7B4A71092B81BF38
:1009F00000238A614B618A85704713468A7B0068B1
:100A0000B2FA82F206315209FFF7DEBD0A4638B566
:100A10000D4604460B681C3040F81C3C8B8820F8BF
:100A2000183C52F8063F40F8163C53684A6940F8B3
:100A3000123C8B69C98940F8082C20F80E1C2969E2
:100A400040F8043C40F80C1C05F11C0105F00FFDBA
:100A500095F82E30AA8D2046A28584F82E3038BD18
:100A600070B5CB780646012B0C464FF000058CB0D4
:100A700039D14879002800F01981CB7B81F82E50BC
:100A8000033B0B2B00F28280DFE813F042004200B0
:100A90008000F900E8000C00300095008200B200F0
:100AA000D1006C00887B06F0E3FAC5B2284607F057
:100AB00005FB01460646606907F04EFA20F000404B
:100AC00006F0BCFE7AA3D3E9002307F081F910B148
:100AD000012384F82E30666105F07FFFA061207C41
:100AE000421B5542554128460CB070BD486907F07D
:100AF00029FDC6B2A07B06F0BBFAC5B2761B18BFB3
:100B00000126284684F82E6007F0D8FA6061E3E7F2
:100B10008A7B30680631FFF7AFFD0546606907F054
:100B200011FDC0B2401B18BF012084F82E002846DA
:100B300007F0C4FA606105F050FFA061207C431B00
:100B40005D425D41E37B042BCDD121466846FFF732
:100B50005DFF30462A466946FFF74FFF07A805F0BC
:100B6000F2FBC0E78D6905F038FFA0F5E160854232
:100B70000CD94FF07C51606907F0B4FC20B1012220
:100B800021784D4804F0F8FA002363610025AAE7B4
:100B90008978494804F0FFFA0028F7D0A56905F0E4
:100BA0001CFFA0F5E1608542F0D9606907F0CAFC3E
:100BB000257CC0B294E789783F4804F0ECFA0546FA
:100BC0000028E3D0A66905F008FFA0F5E1608642A1
:100BD000DCD9606907F0B6FCE37CC0B20BB1984287
:100BE00081D8A37C002BD1D09842FFF47CAFCDE715
:100BF0003249606907F058FC0028C7D1A56905F0A3
:100C0000ECFEA0F5E160854204D22D4B6361022326
:100C10006371BBE7A07C0028B8D007F053FA014607
:100C2000606907F04BFC051E18BF01255BE72349EF
:100C3000606907F039FC0028A8D1A56905F0CDFE50
:100C4000A0F5E1608542E0D3E07C00289ED007F06B
:100C500039FA0146606907F03BFCE4E71948FFF701
:100C600083FA3061606105F0B8FEA061306907F079
:100C700043FCA27C9042CCBF0025012533E7124BF8
:100C80006A464B6130680631FFF71AFC00283FF4D2
:100C90007DAFDDE9000107F00BF9606105F09DFE15
:100CA000A061DDE9000107F0BBF8E2E705461AE7BD
:100CB0009A9999999999B93F340A002000007AC409
:100CC00000407AC43005002000C079C410B500F59A
:100CD000A670046884420BD0237A8B4201D024682A
:100CE000F8E7044804F10801FFF7BAFEE06910BD17
:100CF0000148FCE7080A002000C079C4044B10B585
:100D0000044603610348FFF72FFA206110BD00BFBE
:100D100000C07744300500202DE9F8430C460D460D
:100D20004FF030094FF02D08561E01F118072946E3
:100D300016F8010F10220F28D8BF01F8019B06F00A
:100D400064F8033505F8018CBD42F0D1002320463C
:100D5000E375BDE8F883000038B50D46094B04463D
:100D600053F8221005F039FB95F81831022B07D102
:100D700095F81A21044B204653F8221005F08AFBFF
:100D8000204638BD080000200000002010B50446B1
:100D900091F81821FFF7E0FF204610BD90F81831B8
:100DA000042B0FD0052B12D0022B14BF00230123DC
:100DB000C0F8B031C0F8B431074B90F8B0111888C2
:100DC00006F03DB90123C0F8B0310323F2E7012357
:100DD000C0F8B0310223EDE7340000202DE9F043E4
:100DE00000230C4606460B7020462C4991B007F0B4
:100DF00041FF2B4FD6F84C51DFF8C480DFF8C49088
:100E000006F5A6739D4244D005F1080104A8FFF73A
:100E1000FDFD9DF81020394601A804F035FD01A91B
:100E2000204607F027FF10220B99204608F0D6FC39
:100E30004146204607F01EFFEB7A0BBB19492046BE
:100E400007F018FF6B7B012B21D12046164907F0D4
:100E500011FF95F83430C3B11449204607F00AFF5A
:100E600095F835301BB11249204607F003FF0B49B6
:100E7000204607F0FFFE0BA805F065FA2D68BFE7D6
:100E8000012B14BF49460B49D9E70B49E5E70B494C
:100E9000EAE7204611B0BDE8F08300BFB5C10A08FB
:100EA0002AC00A08EED30A0847BE0A08B7CA0A08C9
:100EB00036BE0A087AC30A085CC00A0832C00A08AB
:100EC000CAC20A0830C00A082DE9F04300230C46C4
:100ED00006460B7020462149A7B007F0CBFE204FF5
:100EE000D6F84C51DFF87C80DFF87C9006F5A673CD
:100EF0009D422ED0EB7D0A2B02D0063B012B26D83B
:100F000005F1080106A8FFF781FD10220D99204682
:100F100008F064FC05F061FD00230C9A414602A82C
:100F2000009705F0FBFC0B9806F088FC029ACDE9CF
:100F30000001494612A804F0A7FC12A9204607F0B8
:100F400099FE02A805F0FFF90DA805F0FCF92D683F
:100F5000CCE7204627B0BDE8F08300BFB5C10A0842
:100F600034C00A08500B00203CC00A080122D0F807
:100F70004C3100F5A670834205D0D97D062988BF83
:100F8000DA721B68F7E77047092910B511D9D0F854
:100F90004C4100F5A67084420BD0E37D8B4206D114
:100FA000E26105F01AFD20620120607310BD246823
:100FB000F1E70020FAE70023D0F8582100F5AC70E3
:100FC000824206D092F835101268002908BF01232A
:100FD000F6E783F00100C0B270470000D0F8B821F6
:100FE000D0E96C3101320229C0F8B82107D00329B9
:100FF00013D00B4B90F8B011188806F020B8032AD4
:10100000F7DD00220133012BC0F8B821C0F8B03160
:10101000EFDD0023C0F8B031EBE7002AF0E700BFB6
:101020003400002010B5044606F07AF840F21112A0
:101030002146142004F0E6F92378062B06D105F0AA
:10104000E3FD064905F0EDF8012010BD05F0DCFDDB
:10105000034905F0E6F80020F7E700BF4BC00A0897
:1010600049C00A08D0F84C3100F5A670834207D079
:101070001A7A8A4202D103F1080070471B68F5E72B
:101080000020704770B5044600F1D00500F150060D
:10109000B54204D0103D284605F055F9F8E704F1B3
:1010A000400005F050F904F1300005F04CF904F16E
:1010B000200005F048F904F1100005F044F920463D
:1010C00005F041F9204670BD2DE9F04F0446ABB064
:1010D0000D4663480CA904F02DF86249204605F03E
:1010E0007CF90CA9204605F001FA5F4BD3E90067B3
:1010F00059A3D3E900233046394606F087FE48B1AC
:101100005A4932463B4616A804F0BEFB204616A9B3
:1011100005F0ECF995F8A424554916A804F0B4FBA1
:1011200016A9204605F0E2F95249204605F0DEF9FD
:101130006846514903F0C4FE0099204605F0D6F9EF
:10114000474804F04DF84D49064616A807F0B8FD8B
:1011500001250027DFF808A1DFF830B1DFF8309172
:101160007310DEB2DB071AD507F10108032F5FFA0F
:1011700088F803D1494616A807F07CFD2A46514657
:1011800008A804F017F8089916A807F073FD08A836
:1011900005F0D9F8594616A807F06CFD4746013509
:1011A000494616A8EDB207F065FD082DD8D116A95D
:1011B000204605F09BF9304904A803F003FE04998A
:1011C000204605F093F92C4908A803F029FE08A948
:1011D00004A805F057F908A805F0B5F8069B012BFF
:1011E00003D92046049905F081F9234908A803F0A2
:1011F0003FFE08A904A805F045F908A805F0A3F8E2
:10120000069B012B03D92046049905F06FF91C4B6E
:10121000D3F8585103F5AC739D4215D0194916A85F
:1012200007F04EFD696A16A807F024FD16A92046AE
:1012300005F05CF904A805F086F8684605F083F827
:1012400020462BB0BDE8F08F0F4916A807F038FDF7
:10125000ECE700BFAFF300800000000000408FC04B
:10126000340A00205EC00A08000A00206DC00A0887
:101270007FC00A088FC00A08080500209FC00A081E
:1012800038030020AAC00A08BDC00A08B7C40A086B
:10129000B5C10A08D0F84C3100F5A67083420DD0D4
:1012A0001A7A8A4208D15A7B012A05D193F8340070
:1012B000003818BF012070471B68EFE70020704717
:1012C000D0F84C3100F5A670834209D01A7A8A42D0
:1012D00004D193F834200AB983F835201B68F3E76A
:1012E0007047D0F87C345A1EC0F87C240BB9C0F883
:1012F0007834704738B504460D4605F07FFB013859
:101300004ABF1723C4F89804C4F8983484F8A45446
:1013100038BD00002DE9F0431D46044616460F4631
:1013200087B0554902A805F058F8294602A88DF85B
:101330000070019605F08CF8A36B206B183B984267
:1013400013D048B19DF8003002A90370019B08300A
:1013500040F8043C05F08BF8236B1833236302A894
:1013600004F0F1FF07B0BDE8F0831525E26BE16AF8
:10137000636B571ABE10C01A731E5D43DFF804C1B9
:10138000C0100CFB0050A36A256A5B1BDB100CFB32
:1013900003003A4B984202D1394806F0E4F8D4E908
:1013A00006C3A2EB0C00A3EBA00001281ED8B51CBD
:1013B000B3EB450F3BD95D1B6D080CEB8505131D89
:1013C000A942A3EB01022CD9994202D0284607F08A
:1013D000D7FBE5622B68636203F5FC73A362EB192C
:1013E000E363EB59636303F5FC73A3634FF4FC7091
:1013F000E56BFEF752FE6860206B48B19DF8003047
:1014000002A90370019B083040F8043C05F02FF856
:10141000E36B1A1DE2635B6803F5FC726363A2630E
:101420009CE79942D5D0381D801A2844CFE703F1B4
:101430000208012B2CBF984408F10108B8F1005FA5
:1014400001D306F08DF84FEA8800FEF726FEE26B26
:10145000E16AA8EB050504326D089142814600EB74
:10146000850503D02846521A07F08AFBA069FEF7CB
:1014700018FEC4E90698ACE7B6C10A0855555505EB
:10148000CFC00A08ABAAAAAA30B50446002589B085
:101490006846114904F0A1FF214604A8FFF714FE95
:1014A00004A9684604F0EEFF04A804F04CFF694666
:1014B000C4F88C5404A804F0DAFF2A46022104ABD5
:1014C0002046FFF727FF04A804F03DFF684604F01C
:1014D0003AFF012009B030BDB6C10A0838B5002571
:1014E0000446294680F88054C0F88C54072005F043
:1014F000A6FD03F06FFFD4F8A834C01A064B98423B
:1015000009D904F019F910B1284604F02DF903F0B7
:1015100061FFC4F8A80438BD005C2605826810B5D8
:101520000AB906F023F8C368BDE81040184708B5AB
:101530000068FFF7F3FF08BD012310B5037483684B
:10154000044643B1C0689847012300206374BDE896
:10155000104003F017BF00680028F5D0FFF7DEFF4A
:10156000F2E738B5002383608B6804460D462BB143
:1015700002229847EB68E360AB68A360204638BD61
:10158000F0B500248FB007460E4602A8114606ADFE
:10159000FFF7E7FF02A92846FFF7E3FF10200C94AE
:1015A000FEF77BFD034698B195E803006A4682E8A2
:1015B000030093E8030085E8030092E80300089A1B
:1015C00083E803009A60D968099A08940991DA605F
:1015D0000A93164B10200D93154B0C93FEF75DFDEF
:1015E0000446B0B1002383600C9B33B102220AA9E8
:1015F00098470D9BE3600C9BA3600E4B3846CDE9EA
:10160000003431466B460C4A04F040F8041E18BF03
:1016100001240AA8FFF7E4F82846FFF7E1F802A83A
:10162000FFF7DEF820460FB0F0BD00BF2F150A0807
:101630003D160A0801000800E9060A08022A70B5EA
:10164000044607D0032A10D0012A01D10B68036099
:10165000002070BD10200E68FEF71FFD054610B17A
:101660003146FFF77EFF2560F2E70468002CEFD0DB
:101670002046FFF7B5F81021204605F0C4FDE7E746
:1016800038B5046805467CB16368013B63605BB9AB
:10169000236820469B689847A368013BA3601BB959
:1016A00023682046DB689847284638BD30B593B09C
:1016B0000C46154605F091F9134B02460093134969
:1016C000C31705A805F02AF9059B01220193104BC9
:1016D00010495B5D0DA80093234604F0D5F80DA9D1
:1016E00009A804F07AFE099A0B4903A8FFF74AF803
:1016F00004A8FFF7C5FF09A804F025FE05A804F01B
:1017000022FE13B030BD00BF71C10A08500B00208B
:1017100020CF0A08FFC00A080CC10A0811F0010F07
:1017200070B5054614BF58264F260024E1B2324654
:1017300028460134FFF7BAFF082CF7D170BD00002E
:101740002DE9F74F04460D461F464FF00008D0F82C
:101750004C61DFF86CA0DFF86CB0019200F5A6795F
:101760004E4525D0317A019B994213D1F27D0E2A44
:1017700001D00B2A10D1384606F0A0FCF061B572FA
:1017800005F02BF90722306229462046FFF78EFF2D
:101790004FF001083668E3E70A2A06D10C9B584649
:1017A0001946F36103F09EFDE9E7C6F81CA0E6E7E1
:1017B00005F02AFA04F029FD404603B0BDE8F08F99
:1017C000000080BF000B00202DE9F04FADF5057D36
:1017D00006A804F002FE069A5A494DA8FEF7D2FF69
:1017E0004EA8FFF74DFF58490AA804F0F6FD06A9D8
:1017F0004DA804F03CFE4DA916A8FFF72DF84DA802
:1018000004F0A1FD16A8FFF7C5F82EA905464DA8BE
:1018100004F02DFE4DA804F003FF06464DA804F089
:1018200092FD32A94DA804F022FE00214DA804F03B
:1018300075FE04464DA804F086FD492C5DD1434950
:101840000AA8F4B204F026FE2246414902A804F098
:101850001BF802A90EA804F0C0FD0AA90EA804F006
:1018600041FE032D5EDD0427DFF800A116AEAF4276
:1018700058D006F1900112A804F0F9FD5E223A2139
:1018800012AB4DA8FFF722F812A804F05CFD4DA89A
:10189000FFF780F802282ADD65A912A804F0E7FD09
:1018A00012A804F0BDFE804612A804F04CFD69A900
:1018B00012A804F0DCFD12A804F0B7FE834612A8BB
:1018C00004F041FD6DA912A804F0D1FD12A804F0A6
:1018D000A7FE814612A804F036FD21465046CDF8F9
:1018E00000B05FFA89F35FFA88F2FFF729FF4DA88D
:1018F000FFF7C8FB01371036B9E7542C01D1154961
:101900009EE74E2C01D114499AE7522C01D113497C
:1019100096E7432C01D1124992E73F2C0CBF1149A5
:1019200011498DE70EA804F00EFD16A8FFF7AAFBDB
:101930000AA804F008FD06A804F005FD0DF5057DD4
:10194000BDE8F08F17C10A08B6C10A0824C10A0809
:101950004BC10A0829C10A0831C10A08D0C90A08BE
:1019600038C10A083EC10A0843C10A0838030020EA
:1019700030B590F81851044685B01DB94FF0FF30CE
:1019800005B030BDD0F8582100F5AC739A422DD087
:10199000FFF711FB80B3002384F88031C4F8843151
:1019A00004239D42EAD084F818312046144DFFF7F5
:1019B000F5F994F8182121466846FFF7CDF96946F4
:1019C000284604F05FFD684604F0BDFC29686846BF
:1019D000FEF7E6FE01A8FFF753FE2046002194F82B
:1019E0001821FFF763FE94F81801C9E7D0F87831A1
:1019F00023B990F81931D4E70323D2E70523D0E7C0
:101A0000240A00202DE9F04F93B0154699468846E8
:101A1000064605F0F9F8634904F0F0FB05F0F4F828
:101A2000002D044676DA2D2104F0ECFB69422046B5
:101A30000A2204F000FC3446002304F8903FB8F179
:101A4000000F57D0584F0AA83946FFF79FF904F006
:101A5000C4FF564B024656490093C3170EA804F024
:101A60005DFF0E9A032138460992FFF72FF90221F4
:101A700082463846FFF72AF9012183463846FFF7A8
:101A800025F90A9B069305F0D9FECDE904015846D5
:101A900005F0D4FECDE90201504605F0CFFE099ACB
:101AA000CDE900014349204603F0EEFE42492046BD
:101AB00007F0E0F80EA804F046FC0AA804F043FC86
:101AC000B8F1020F16D1D7F8583107F5AC78434575
:101AD00010D02046394907F0CDF8D7F858314345A2
:101AE00008D0596A0C22204607F078FE2046324979
:101AF00007F0C0F84946204607F0BCF8013505F06C
:101B000083F82F4904F07AFB032D13D8DFE805F0A2
:101B1000041F2D3B29468AE72A4B22461B7806F1F3
:101B200040018DF800303C230EA804F077F80FA890
:101B3000FFF7A6FD05F068F8234904F05FFB05F008
:101B400063F8214604F06DFB13B0BDE8F08F05F09B
:101B50005BF81E4904F052FB1A4B22461B7806F133
:101B600054018DF800303C23DEE705F04DF81849AC
:101B700004F044FB134B22461B7806F168018DF8F4
:101B800000303C23D0E705F03FF8124904F036FB63
:101B90000C4B22461B7806F17C018DF800303C236B
:101BA000C2E700BF56C10A083803002068C10A080E
:101BB000500B00207AC10A08B7C40A08A4C10A0859
:101BC000B7C10A082503002003C20A08CFC10A08CA
:101BD000D9C10A08EFC10A0870B5E4B004460D4641
:101BE000164619684FF4C872684607F01CFE0023B9
:101BF00032468DF88F3129466B462046FFF702FFAB
:101C000064B070BD70B504468AB0264906A804F0D9
:101C1000E4FB216A236B99422BD00B7806A88DF840
:101C200010304B680831059304F012FCD4F88C3462
:101C30005A1C632BC4F88C242EDCA36A226A183B3E
:101C40009A4202F1080019D004F07DFB236A183390
:101C50009DF81050059E236206A9684604F007FC13
:101C600020466B4632462946FFF7B6FF684604F029
:101C70006AFB06A804F067FB0AB070BD04F063FBC2
:101C8000606AFEF70EFAE36A1A1DE2625B6803F50A
:101C9000FC726362A262DBE70121072005F0CFF945
:101CA000E7E700BFB6C10A0807B5084A6846084911
:101CB000FEF768FD01A8FFF7E3FC01220021054BB8
:101CC0000548FFF79FFE03B05DF804FB08C20A0851
:101CD00023C20A0829C20A083805002007B5094AA4
:101CE00068460949FEF74EFD01A8FFF7C9FC01222D
:101CF0000021064B0648FFF785FE04F0E8FC03B020
:101D00005DF804FB3AC20A0823C20A0855C20A0851
:101D100038050020F8B505460E46002440F211179C
:101D200005F0FEF9315D2819013403F063FBBC4274
:101D3000F6D12046F8BD10B5044602EB021202F1BE
:101D40008900C9691022204407F06DFD2146142046
:101D5000FFF7E0FF012010BD10B50446006805F054
:101D6000A1FA2060204610BD2DE9F04300230C4667
:101D700005460B7093B020461C498DF8103006F0D4
:101D800079FFD5F878313BB92046194906F072FF42
:101D9000204613B0BDE8F083D5F87031DFF85480E9
:101DA000039305F5B479039E4E45F1D0377D28465F
:101DB0003946FFF757F940B11022C1690DEB020017
:101DC00007F031FD00238DF8203033693A46414653
:101DD000009309A804AB03F057FD204609A906F0BB
:101DE00049FF03A8FFF7B8FFDDE700BF6BC20A0891
:101DF00077C20A0881C20A0837B5D0F878310D4693
:101E00008BB1D0F8703100F5B4740193019BA342FB
:101E100009D01A69AA4202D1187D03B030BD01A8C9
:101E2000FFF79AFFF2E74FF0FF30F6E712B90368C9
:101E30009B681847D2B204F0FEB900002DE9F041CA
:101E40000546D0F84C41DFF818813D4F3D4E94B027
:101E500005F5A6739C426CD004F1080108A8FEF7B2
:101E6000D5FD69460DF126024046FEF755FF04F008
:101E7000CBFE0A229DF82010FFF7D8FF04F0C4FE25
:101E8000394604F0BBF904F0BFFE0A229DF8231086
:101E9000FFF7CCFF04F0B8FE314604F0AFF904F0D0
:101EA000B3FE0A229DF82210FFF7C0FF04F0ACFE3B
:101EB000254904F0A3F904F0A7FE0A229DF82E108C
:101EC000FFF7B4FF04F0A0FE204904F097F904F0F6
:101ED0009BFE0A229DF82F10FFF7A8FF04F094FE46
:101EE0001B4904F08BF904F08FFE9DF82F20194B4D
:101EF00053F8221004F082F904F086FE164904F02B
:101F00007DF904F081FE694604F078F904F07CFE66
:101F1000124904F073F904F077FE0F9904F06EF99A
:101F200004F072FE04F071F90FA804F00CFA2468B2
:101F30008EE704F069FE04F068F914B0BDE8F081A2
:101F40008DC20A0897C20A08A0C20A08A7C20A08D6
:101F5000ADC20A08A0000020B0C20A08B7C20A0831
:101F6000080A00202DE9F0430E46D0F84C41DFF876
:101F70000881DFF80C9199B000F5A677BC4275D0C6
:101F8000012504F108016846FEF740FD731E0DF1BE
:101F90000602F11D13F801CF12F8010B844518BF9A
:101FA00000258B42F6D1002D36D004F02DFE3049AD
:101FB00004F024F904F028FE0A22E17DFFF736FF41
:101FC00004F022FE2B4904F019F904F01DFE102242
:101FD000F179FFF72BFF04F017FE274904F00EF903
:101FE00004F012FE1022617DFFF720FF04F00CFECA
:101FF000224904F016F969460CA8FEF707FD0123F3
:1020000013A88DF8333004F09EF907A804F09BF96B
:10201000284619B0BDE8F08333786946FF2B0CA839
:102020000CD1FEF7F3FC012313A88DF8333004F034
:102030008AF907A804F087F924689FE7FEF7E6FC11
:1020400013A88DF8355004F07EF904F0DDFD41460B
:1020500004F0D4F804F0D8FD617D1022FFF7E6FE0D
:1020600004F0D2FD494604F0DCF8E2E70025CFE7B2
:10207000BEC20A08C3C20A08CCC20A08D6C20A08ED
:10208000EDC20A0838B50546FFF7D0FE04462846DB
:1020900004F0BBF8204438BD70B5012690F8183123
:1020A000194CB34294BF00230123637090F81A3196
:1020B0000546A370154B164893F8A4342670237276
:1020C00002F07DFE134B2061D3E9000105F0F0FE24
:1020D000D5F87C31E0601048636003F081F8E0706F
:1020E00004F092FD0D4904F089F804F08DFD61784B
:1020F0000A22FFF7C7FF05F013F81422214600203B
:1021000003F088F9304670BDF40400203805002043
:102110000805002028050020340A002004C30A080E
:102120002DE9F74300240746CDE9004404F06CFD97
:10213000264904F076F82648FEF7FDF8DFF89C8083
:10214000DFF89C9004F060FDE5B2414604F056F8DB
:1021500004F05AFD0A222946FFF768FE04F054FDF8
:10216000494604F04BF869461948FEF7F1F806466F
:1021700004F04AFD0A223146FFF784FFF6B104F06D
:1021800043FD144904F03AF804F03EFD0A222946C2
:10219000FFF74CFE04F038FD0F4904F02FF804F06F
:1021A00033FD10229DF80710FFF76CFF01346946DC
:1021B0003846FFF7D7FE142CC4D125460448FEF755
:1021C000BAF8284603B0BDE8F08300BF27C30A0869
:1021D000EC0900204FC30A0859C30A0847C30A087C
:1021E000CAC20A08F8B505460C4616464AB903683D
:1021F000C9B29B6898470746284604F006F8384459
:10220000F8BD00290CDA0A2A0AD12D2103F0FAFFC1
:10221000074661422846F2B204F00DF80744EBE7A6
:1022200021460027F6E70000002301220B2170B5AC
:10223000044680F8513080F8793080F88130974B2F
:1022400080F8492080F8591080F8692080F87120C2
:1022500088B000F1890203F1100153F8040B8B429E
:1022600042F8040BF9D1FF2363724FF6FF736FF44A
:10227000664263814FF0FF33C4E903326361237622
:102280000A23002584F85A3001231022844984F857
:102290004A5084F8525084F86A3084F8723084F8D6
:1022A0007A5084F8825004F19A0007F0BCFA6B4629
:1022B0007C4A84F86150106851687B4A03C340F23D
:1022C0000123A4F86230234643F8192B6A4604F12F
:1022D000210512F8011B03F8011B9D42F9D10123CE
:1022E00084F853300623002684F85B300223102242
:1022F0006E4984F8733084F84B6084F86B6084F81E
:102300007B6084F8836004F1AB0007F08CFA684AC4
:1023100002AB10685168267103C3032302AA84F834
:1023200064302B4604F1290512F8011B03F8011B48
:102330009D42F9D1012384F854300623002684F805
:102340005C30022310225B4984F8743084F84C60BE
:1023500084F86C6084F87C6084F8846004F1BC00CC
:1023600007F061FA544A04AB10685168667103C300
:10237000042304AA84F865302B4604F1310512F8D1
:10238000011B03F8011B9D42F9D101230026042201
:102390004A4984F84D3084F8553084F85D2084F83B
:1023A0006D30102284F8756084F87D6084F8856053
:1023B00004F1CD0007F037FA414A06AB51681068C6
:1023C000A67103C3052384F866302B4606AA04F1E0
:1023D000390112F8010B03F8010B8B42F9D11022DD
:1023E000384904F1DE0007F01EFA02250623E571E4
:1023F00084F867301022344904F1EF0007F013FA33
:10240000FF2384F839304FF6FF736FF46642638719
:102410004FF0FF33C4E90F32636484F84830072378
:1024200040F201120A2684F8683025720023012543
:1024300040F6043184F8503084F85830A4F87E30E7
:1024400084F88030A4F8863084F88830A4F84E20D0
:10245000A4F85E10A4F86E20A4F876201B49102280
:10246000A4F8565084F8606084F8705084F878506E
:1024700004F5807007F0D7F921461420FFF74AFCD5
:1024800004F0C2FB124903F0B9FE04F0BDFB324672
:102490000821FFF7A7FE284608B070BD60C30A08F0
:1024A00070C30A08DEC30A08060101007CC30A08DB
:1024B000E7C30A0887C30A08C0CE0A088FC30A0800
:1024C000C8CE0A0899C30A08A3C30A08AFC30A08FA
:1024D000BBC30A0810B5174B04461B7A80F8A43416
:1024E00004F08CFA94F8A434C4F8900490FBF3F050
:1024F000434348BF1833C4F8983404F085FB0E49B1
:1025000003F07CFE04F080FB0A22D4F89014FFF75D
:1025100069FE04F079FB094903F070FE04F074FBD6
:102520000A22D4F89814FFF75DFE04F073FAC4F899
:102530009C0410BDF4040020F4C30A08F0C30A0888
:102540002DE9F0470746002501248CB004F05CFB20
:102550003A4903F066FEDFF8FC80D7F84C61DFF8FB
:10256000F890DFF8F8A007F5A6739E4248D006F170
:1025700008016846FEF74AFA04F046FB0A229DF875
:102580000010FFF753FC04F03FFB414603F036FE1A
:1025900004F03AFB079903F031FE04F035FB49469D
:1025A00003F02CFE04F030FB0A229DF80210FFF726
:1025B0003DFC04F029FB514603F020FE04F024FB0F
:1025C0000A229DF80310FFF75DFD9DF80F30033BD5
:1025D000032B0ED89DF80330012B0FD004F014FB11
:1025E000174903F00BFE04F00FFB079903F019FEE7
:1025F000002407A803F0A7FE3668B4E70135F8E722
:10260000A5B9ACB908210F4802F080FD01220E4B9C
:1026100011460E48FFF7F6F904F0F6FA0A222946A9
:10262000FFF7E0FD20460CB0BDE8F087002CF3D0AA
:1026300004F0EAFA064903F0E1FDEDE7FAC30A08FF
:1026400012C40A08340A002023C40A0838050020EE
:102650002CC40A08CAC20A0807C40A080DC40A081A
:1026600010B50C46D4B001A803F0B7FE04F0CCFAC4
:10267000324903F0C3FD04F0C7FA019903F0D1FD1C
:10268000214609A803F0A9FE242209AB40211DA878
:10269000FEF71CF909A803F056FE1DA8FEF77AF90B
:1026A000044604F0B1FA264903F0A8FD04F0ACFAA0
:1026B00021460A22FFF796FD032C224C0DDD29A9A5
:1026C00009A803F0D4FE09A803F0AFFF05F0B6F89F
:1026D000C4E9000109A803F036FE04F095FA1A498E
:1026E00003F09FFDD4E9000105F0E2FB0D21024655
:1026F0001648FEF749FCD4E90023154909A803F060
:10270000C3F804F081FAD4E900231249FEF75AF81D
:1027100009A905A803F061FE012205AB11460E4888
:10272000FEF7F8FD05A803F00EFE1DA8FEF7AAFCB3
:1027300001A803F008FE54B010BD00BF42C40A084F
:1027400056C40A08000A0020CAC20A08380300203A
:1027500061C40A087CC40A08380500202DE9F04F3E
:1027600095B00446514907A803F037FE04F046F936
:10277000C4F8900404F04EF9D4F89C3494F8A454AE
:10278000C31A48BF3C33C4F8A034D4F8A034294657
:10279000042BC8BFC4F8A004012DB8BF0121D4F890
:1027A0009034D4F89824C4F894049A42C8BF1833DB
:1027B0009B1A8B4277DB013273D0EDB104F024FA1F
:1027C0003B4903F02EFD21460BA8FEF77DFC0BA92B
:1027D00007A803F057FE0BA803F0B5FD07A90BA847
:1027E00003F045FE0022022120460BABFEF792FDCE
:1027F0000BA803F0A8FD012503212E48FEF766FA79
:1028000005F01CF806460F462B4B02212948C3E968
:102810000067FEF75BFA05F011F880468946274B02
:1028200001212448C3E90089FEF750FA05F006F8B3
:1028300082468B46224B07211E48C3E900ABFEF7B8
:1028400045FA04F0FBFF1F4B3246C3E900013B464B
:10285000CDE90401CDE902AB1B49CDE900890BA804
:1028600003F012F82046FEF739FE04F0CDF91749BF
:1028700003F0C4FC04F0C8F9154903F0BFFC04F0F0
:10288000C3F90A22D4F89014FFF7ACFCD4F89034C2
:10289000C4F8983407A803F056FD284615B0BDE8E3
:1028A000F08F0025F2E70025F4E700BFB6C10A0863
:1028B0009CC40A0838030020D80A0020E00A00203F
:1028C000D00A0020C80A0020D0CE0A08AAC40A08EC
:1028D000B9C40A080023092202F016BF70B50546E4
:1028E0000468A54209D0204650F8246B03F02BFD64
:1028F0002046FDF7D6FB3446F3E770BD10B504461D
:102900000430FFF7EBFF204610BD38B5051D044627
:102910002846FFF7E3FF0023C4E90155E36023766F
:1029200038BD70B505460C464CB1E1682846FFF746
:10293000F8FFA6682046FDF7B4FB3446F4E770BD07
:1029400010B50446D0F8140118B140F2111104F08A
:102950005AFC04F5CE7003F0F6FC04F5C47003F0E5
:10296000F2FCD4F86C1104F5B270FFF7DAFF04F54D
:10297000AC70FFF7B3FF04F5A670FFF7AFFF04F5E7
:102980009C7003F0E0FC204610BD2DE9F8430E4694
:10299000D0F86C1100F5B47705463A460B4633B1D2
:1029A0001869B042AABF1A46DB689B68F7E79742EE
:1029B00048D01369B34245DCB8460C46E4B12369FC
:1029C000B34204DAE3684446A0461C46F6E7A3682F
:1029D000FADCE26843B11869B042BABFD86823464E
:1029E00098681C460346F5E73AB11369B342CABF7B
:1029F0009046D2689268F7E74446D5F870319C4219
:102A00000DD147450BD105F5B270FFF78AFF0023C2
:102A1000C5E95B37C5E95D733046BDE8F8834445D9
:102A2000FAD0204604F051FC81463946204604F095
:102A3000BDFCFDF736FBD5F878314C46013BC5F8B7
:102A40007831ECE74FF0FF36E6E7000070B590F81C
:102A5000183104468B420D4688B01BD001296AD834
:102A6000D0F8582100F5AC739A4215D03649684623
:102A700003F0B3FC694604A803F0F9FC01223348D3
:102A8000114604ABFEF746FC04A803F05CFC684664
:102A900003F059FC00254BE0D0F878319BB12C496C
:102AA000684603F09AFC694604A803F0E0FC0122A2
:102AB0002648114604ABFEF72DFC04A803F043FCA6
:102AC000684603F040FC04F5B270D4F86C1184F849
:102AD000185184F81951FFF724FF0023204604F50C
:102AE000B472C4E95C22C4F86C31C4F87831FFF7E1
:102AF000D3FA01252046174EFEF750F994F8182115
:102B0000214604A8FEF728F904A9304603F0BAFCD0
:102B100004A803F018FC316804A8FDF741FE05A8DD
:102B2000FEF7AEFD0021204694F81821FEF7BEFD09
:102B3000284608B070BD022904D140F20223A0F853
:102B40001831D4E70025D5E7BFC40A0838050020AE
:102B5000D0C40A08240A00207FB5384D044604F08A
:102B6000DFFA14222946002002F04CFC2E78012EB8
:102B70005DD104F049F8324903F053FB04F044F806
:102B8000304903F03BFB04F03FF80A226978FFF775
:102B900079FA04F039F82C4903F030FB04F034F8EA
:102BA0000A22A978FFF76EFA04F02EF8274903F0FD
:102BB00025FB04F029F80222E978FFF763FA6B7825
:102BC0002046002B0CBF31460221FFF73FFF94F84F
:102BD0001831E978022B28BF022384F81931AB7829
:102BE0001B48022B28BF002384F81A3102F0F6FAA2
:102BF00021466846FEF7CAF86946164803F042FCCB
:102C0000684603F0A0FB6B780020013B18BF01234E
:102C10001149C4F8B031114BC3E900010023012070
:102C200084F880316B68C4F87C3104B070BD03F067
:102C3000EBFF0B4903F0F5FA0020F6E7F40400205F
:102C400012C50A08F0C40A08FAC40A0807C50A0827
:102C5000340A0020240A0020008057402805002064
:102C600010C50A0810B4D0F8782172B9D0F88411D0
:102C70004C1C3C29C0F884410ADD80F88021C0F852
:102C80008421052110BCFFF7E1BE0022C0F8842199
:102C900010BC704770B505460C466CB1E16828461B
:102CA000FFF7F8FFA66804F1140003F04CFB204680
:102CB000FDF7F7F93446F0E770BD70B503680446D8
:102CC00063B1436A45691E1DAE4204D955F8040B31
:102CD000FDF7E7F9F8E72068FDF7E3F9204670BD56
:102CE000F8B50446382017460E46FDF7D6F90546D6
:102CF00039460830FDF78AFE3146284604F089FA45
:102D0000A3680133A360F8BD2DE9F04F03780446B2
:102D1000062B8DB070D100264FF0010A37464FF0D8
:102D20000009451C00F5957895F85830002B5AD0CD
:102D30002A7884F81C7184F81D2195F8602084F8A5
:102D40001E2104F591726FF48C71511811F837102F
:102D500002F8011B9045F6D1022B95F8502084F81B
:102D60002B3194BF0023012384F82A2110224FF035
:102D7000000B84F821A184F81F3195F8683004F124
:102D8000890184F82C3195F870300DEB020084F83D
:102D90002D3195F87830013684F82E3195F8803051
:102DA000F6B284F82F3107EB0713194406F03BFD08
:102DB00004A968468DF820B003F00FFB694604F5BE
:102DC0009C7003F05FFB684603F0BDFA04F5A67142
:102DD0000846C4F83091C4F834B1A4F848B104F5F9
:102DE0008E72FFF77DFF0137082F05F101059BD19A
:102DF00030460DB0BDE8F08F0026F9E70A46011D08
:102E000010B504460846FFF76BFF0123237610BD7B
:102E1000F0B58BB06D461F46002385E8060003AC75
:102E2000064695E8030084E805000C200893FDF7AA
:102E300034F9024620B194E8030082E80300976069
:102E4000104B10200993104B06920893FDF725F9BB
:102E5000044680B100238360089B33B1022206A997
:102E60009847099BE360089BA360214632460748C8
:102E700002F0CAFD044606A8FDF7B2FC20460BB0DE
:102E8000F0BD00BF4F070A0811070A08E1590A08F8
:102E900073B500266C460546124B0196009394E8E4
:102EA000060003461048FFF7B3FF104B1048CDE96A
:102EB00000362B4694E80600FFF7AAFF0D4B0E489C
:102EC000CDE900362B4694E80600FFF7A1FF0B4B37
:102ED0000B48CDE900362B4694E80600FFF798FF33
:102EE00002B070BD89440A0824C50A0861410A0875
:102EF0002CC50A0889140A0834C50A08C1430A08FF
:102F000047CF0A080000000070B594B003F07CFEC3
:102F10004FF4165103F05EFE03F076FEC04903F055
:102F200080F90221042004F079F80221052004F040
:102F300075F8042004F09CF8044603F065FEB949D6
:102F400003F05CF903F060FE0A22E1B2FEF76EFFC7
:102F5000052004F08DF8044603F056FEB24903F054
:102F60004DF903F051FEE1B20A22FFF78BF8AF48AA
:102F7000FFF78EFFAE4801F0EAFEAE4B00210C9346
:102F8000AD4B0CAA0F93AD4B4FF40060AC4D0E93BC
:102F90000CACFEF7F5FA0CA8FDF722FC0FCD0FC420
:102FA00095E80F0084E80F0000240C230794ADF887
:102FB0001C30A44B0422A4490893A44807AB0994ED
:102FC00002F0A2FB23460922A149A24802F09CFB81
:102FD00023460922A049A14802F096FBA049A14836
:102FE000FFF778FCA049A148FFF774FCA049A1486D
:102FF000FFF770FC012322469F49CDE900449F481A
:1030000002F0AAFB012322469D49CDE900449D48D8
:1030100002F0A2FB012221469B4B8448FEF7F2FC02
:103020009A4E0CAD55F8041B07A803F0D6F9E1B28F
:10303000304607AA02F0B4F8013407A803F083F978
:10304000082CEFD174A1D1E90001814BC3E9000143
:103050000020AFF300800221042003F0DFFF0221F3
:10306000052003F0DBFF0221062003F0D7FF884B89
:103070000121188803F0D2FF864B0121188803F044
:10308000CDFF0121072003F0DAFF834B01211888CF
:1030900003F0C4FF00217D4801F08EFF03F0B4FD72
:1030A000032307227D4900930023FDF78BFB03F0E8
:1030B000ABFD7B4903F0B5F80121744801F07CFFBA
:1030C000784803F069FB19217748FDF720F810F0E4
:1030D000FF0F14D003F098FD744903F08FF803F04C
:1030E00093FD0A221921FFF77DF80121674802F0BC
:1030F0000DF8012200216E4B4C48FEF783FC6D4811
:10310000FDF7ACF86C48FFF727FD6C4C48B901237C
:103110004FF47A7220616848637062602372FEF730
:10312000BBFF217A4148FEF7E5F82169404801F0EC
:103130001CFE6148E178FEF7F1FA5F48FDF772FF87
:1031400000283AD15E4907A803F047F9012207ABEE
:1031500011463648FEF7DEF807A803F0F4F803F04E
:1031600053FD584903F05DF85348FFF75DF888B107
:10317000554907A803F031F9012207AB11462B4846
:10318000FEF7C8F807A803F0DEF803F03DFD4F494D
:1031900003F047F804213D4801F0B8FF0122002167
:1031A0004B4B2248FEF72EFC03F02EFD494903F05D
:1031B00038F80321354801F0FFFE03F025FD4649AC
:1031C00003F02FF83C48FFF79FFD002800F03D81F9
:1031D0003948FEF733FE03F017FD404903F021F8AC
:1031E0003448FDF73BF800213248FDF70FF805465B
:1031F00003F00AFD3A4903F001F803F005FD10223F
:103200002946FEF73FFF182D77D003F0FDFC354926
:1032100003F007F8022167E00000000000508FC0B3
:103220003BC50A0847C50A084BC50A0838050020EF
:1032300008050020A91C0A08B1060A08B5060A08F4
:10324000FCCE0A08AD060A08240A00204FC50A0869
:10325000000A002055C50A08E00A00205DC50A08DA
:10326000D80A002065C50A08D00A0020EBBD0A086C
:10327000C80A0020F2BD0A0861260A086CC50A08BF
:10328000C9170A0877C50A0882C50A08340A002047
:103290003400002030000020DC00002092C50A0825
:1032A000BFC50A080000E0C030050020D3C50A08E9
:1032B000E1C50A08EC09002038030020F4040020CE
:1032C000EEC50A08FCC50A0812C60A081EC60A0886
:1032D00031C60A083AC60A0848C60A0852C60A0889
:1032E0006DC60A0888C60A087B4801F00FFF012254
:1032F00000217A4B7A48FEF785FB7A48FCF791FF6C
:1033000003F082FC784902F079FF03F07DFC05466A
:10331000714801F0FFFE0A2201462846FEF786FDAD
:1033200003F072FC714902F069FF03F06DFC054681
:10333000694801F0F1FE0A220146284602F07BFFAF
:10334000284602F062FF644801F0E4FE88B9624852
:1033500001F0E2FE68B16348FCF78EFF002800F040
:10336000878003F051FC624902F05BFF6148FEF781
:10337000D7FE6048FDF7FAFD03F046FC5E4902F017
:1033800050FF5C48FEF75AFD5A48FFF7D9F800286D
:1033900072D002210122594B5148FEF733FB03F052
:1033A00033FC574902F03DFF4B4801F0B3FE0028C3
:1033B0006CD10421484801F0FFFD03F025FC514980
:1033C00002F02FFF012202214E4B4548FEF71AFB67
:1033D0004348FFF77FF801F0F5FF02F08FFF4A48FE
:1033E000FDF78CFC61784348FFF730FB03F00CFCE1
:1033F000464902F016FF464907A802F0EEFF07AB68
:10340000012202213648FDF785FF07A802F09BFF45
:103410000C21404A3748FDF7B7FD3F4A0D2135489A
:10342000FDF7B2FD0021072003F009FE00212A4824
:1034300001F0D2FE03F0E8FB384902F0F2FE4FF44F
:103440007A7002F071FA14B070BD03F0DDFB3449FC
:1034500002F0E7FE324907A802F0BFFF0122204830
:10346000114607ABFDF756FF07A802F06CFFB7E661
:1034700003F0CAFB2B4977E701222B4B1146184872
:10348000FEF7C0FA03F0C0FB28498BE7124801F0B1
:1034900041FE2749024607A802F0F6F903F0B4FB03
:1034A000244902F0ABFE03F0AFFB05460A4801F0E9
:1034B00031FE0A2201462846FEF7E4FD07A903A8CB
:1034C00002F08BFF01220648114603ABFDF722FFF5
:1034D00003A802F038FF7BE7340A0020A0C60A08E0
:1034E00038050020EC090020B0C60A08BBC60A084F
:1034F000C7C60A0838030020FBC60A0812C70A0814
:103500001BC70A084EC70A08080A00207BC70A081A
:103510008DC70A080000CA42000090429CC70A08F2
:1035200064C60A08E4C60A082DC70A0838C70A088C
:103530005DC70A086DC70A082DE9F843D0F808E00E
:10354000071D05460A463E467446FCB123691068CD
:10355000834204DAE368344626461C46F5E7A3684E
:10356000FADCE26853B119698842C6BFD3F80CC0CF
:103570002346D3F808C01C466346F3E73AB1136903
:103580009842B6BF1646D2689268F7E73446EB68B1
:10359000D5F81490A3420FD1B7420DD171462846F9
:1035A000FFF778FB0023C5E90237C5E904736869B2
:1035B000A9EB0000BDE8F883A642F8D0204603F04E
:1035C00084FE39468046204603F0F0FE044614305F
:1035D00002F0B9FE2046FCF764FD6B694446013BEE
:1035E0006B61E9E72DE9F04F0746ADF5257D88468B
:1035F00002A87E4902F0F1FE7C4906A802F0EDFE29
:103600007B490AA802F0E9FE97F8803440AE022B0D
:103610001BD97849304602F0E0FE334601220021F2
:103620003846FDF777FE304602F08DFE00250AA8E9
:1036300002F089FE06A802F086FE02A802F083FED0
:1036400028460DF5257DBDE8F08F002527AB0093BA
:1036500033AA22AB6849D8F800008DF888508DF85D
:103660009C5002F021F96549304602F0B6FE314621
:10367000404602F072FF8146304602F064FE09F1D6
:1036800001024146304602F08DFF314606A802F0A5
:10369000F9FE304602F057FE06A802F098FF0146F8
:1036A00006A802F0D5FE5549304602F096FE314696
:1036B00006A802F052FF8046304602F044FE08F1B0
:1036C0000102304606A902F06DFF314606A802F05D
:1036D000D9FE304602F037FE06A802F078FF014618
:1036E00006A802F0B5FE03F08FFA27AB33AA4449CF
:1036F000009322ABFDF766F833A90EA802F06DFE29
:103700000EA802F056FF03232A4630460EA902F007
:1037100027FF31460EA802F0B5FE304602F013FE38
:103720000AA90EA802F0DEFE36480EA902F015FF27
:10373000B0F1FF3F3446804615D10E9A324933A886
:1037400002F0A2F833A9304602F047FE384633466D
:1037500001222946FDF7DEFD304602F0F4FD0EA8F9
:1037600002F0F1FD63E722A912A802F036FE27A9B4
:1037700016A802F032FE27A91AA802F02EFE12A8FF
:1037800002F04EFF054616A802F04AFFB8F1000FFE
:10379000B8BF08F103084FEAA8088146B8F1200F26
:1037A00000F2A684DFE818F03200DE00FD0003011D
:1037B0000D0198041F01160256022701310137013D
:1037C000750155016C0178017A02A002A502C102BF
:1037D000DA03E7031304280439043E0444045904BB
:1037E0004C048B049D04F403020400BFB6C10A0814
:1037F0008BC70A08AFC70A08C4C70A08B7C40A08B3
:10380000CDC70A0828030020F7C70A08C149304677
:1038100005F056FAC049304605F02CFABF4930464B
:1038200005F028FABE49304605F024FABD49304675
:1038300005F020FABC49304605F01CFABB49304679
:1038400005F018FABA49304605F014FAB94930467D
:1038500005F010FAB849304605F00CFA31462CA8AC
:1038600002F0BBFD01222CAB00213846FDF752FDD2
:103870002CA802F068FDB149304605F021FAB049A4
:10388000304605F0F7F9AF49304605F0F3F9AE4997
:10389000304605F0EFF9AD49304605F0EBF9AC499B
:1038A000304605F0E7F9AB49304605F0E3F9AA499F
:1038B000304605F0DFF9A949304605F0DBF9A849A3
:1038C000304605F0D7F99349304605F0D3F9314633
:1038D0002CA802F082FD01222CAB00213846FDF716
:1038E00019FD2CA802F02FFD9E49304605F0E8F99D
:1038F0009D49304605F0BEF99C49304605F0BAF9BD
:103900009B49304605F0B6F99A49304605F0B2F9C0
:103910009949304605F0AEF99849304605F0AAF9C4
:103920009749304605F0A6F99649304605F0A2F9C8
:103930009549304605F09EF931462CA802F04DFD20
:1039400001222CAB00213846FDF7E4FC2CA802F044
:10395000FAFC01251AA802F0F6FC16A802F0F3FC06
:1039600012A8FAE68949304605F0AAF98849304696
:1039700005F080F98749304605F07CF903230722DA
:103980008549009333A8002301F07EFF33A9304618
:1039900005F070F931462CA802F01FFD00222CAB77
:1039A000D0E731467D48FDF78FFA2146C5E77C48D0
:1039B00001F0D0F97B49204602F00FFD234600229A
:1039C0000BE00025314638463560FFF7B5FD7649F6
:1039D000204602F002FD2346012200213846FDF771
:1039E00099FC2046B3E73046704902F0F6FC3346B6
:1039F00002220121F2E76A4801F0C7F96C4920462A
:103A000002F0EBFC23460022F3E7E9B2644801F040
:103A1000C8F96849F3E705F117032E2B00F2758307
:103A2000002D97D029465E4801F0A1F96249304641
:103A300002F0D3FC3346012200213846FDF76AFC30
:103A4000304602F080FC564801F0B9F95B4B186132
:103A50007FE7524D02212846FEF7F8FF00283FF489
:103A600078AF03F0D1F8564902F0C8FB95F8986199
:103A7000204605F5C47102F0FAFC23463246B8E749
:103A80000121464D2846FEF7E1FF00283FF461AFD3
:103A9000ECE70021414DF5E729464048FEF7ACF937
:103AA000421C0646DFF8F48031D001464046FDF75F
:103AB000F1FB48BB29464046FEF767FFF1B240469E
:103AC000FDF7FEFB2A463F4933A801F0DDFE33A98E
:103AD000204602F082FC2346012202213846FDF7EF
:103AE00019FC204602F02FFCD8F87831002B7FF427
:103AF00030AF02212948FEF7A9FF3349204602F0E2
:103B00006CFC2346012274E72A463049DCE72A464A
:103B10002F49D9E70AC80A0823C80A0832C80A0880
:103B200044C80A0856C80A0867C80A087BC80A08B1
:103B30008EC80A089DC80A08A9C80A08B8C80A0891
:103B4000D1C80A08E6C80A08EFC80A0801C90A0865
:103B500012C90A081AC90A0820C90A0834C90A0879
:103B600041C90A084FC90A085AC90A0867C90A0898
:103B700076C90A0889C90A088FC90A08A1C90A08AA
:103B8000B6C90A08C5C90A08D6C90A08E9C90A088F
:103B9000F6C90A0819CA0A082ACA0A0838030020FE
:103BA000080500203CCA0A084ECA0A0860CA0A086A
:103BB00084CA0A0896CA0A08A8CA0A08F404002097
:103BC000B9CA0A08C3CA0A080FCB0A08D6CA0A0823
:103BD000FACA0A08BD4D95F81A81B8F1010F24D12F
:103BE0000026DFF874932946204685F81A61FDF710
:103BF000CDF82146484602F045FC204602F0A3FBE2
:103C0000D9F800102046FCF7CBFD41A8FDF738FDA0
:103C10002046AF4902F0E1FB2346424638460021E8
:103C2000FDF778FB204602F08EFB0221A748FEF745
:103C30000DFF00283FF48DAE02F0E6FFA54902F02B
:103C4000DDFA95F898512046A34902F010FC23466E
:103C50002A46CEE69D4D95F81A31012BE5D0012676
:103C6000DFF8F4822946204685F81A61FDF78EF8C0
:103C70002146404602F006FC204602F064FBD8F8DC
:103C800000102046FCF78CFD41A8FDF7F9FC20460A
:103C9000924902F0A2FB23463246BFE70C2D21D801
:103CA00029463846FDF726FBBDB12A468C4933A884
:103CB00001F0EAFD33A9204602F08FFB01222346E2
:103CC00011463846FDF726FB204602F03CFB02F089
:103CD0009BFF844902F092FA3BE6834933A804F043
:103CE000EFFFE7E7814973E631467848FDF776F85C
:103CF0005BE600237548E9B28DF8CC30FDF7B2F9E8
:103D00000646002800F0608106A91C3002F0A0FBE6
:103D10002A4631466D48FEF70EF82A46069B74493E
:103D200033A801F0B1FD33A9E8E600236748E9B202
:103D30003370FDF797F90646002800F0C18002783D
:103D40006C49204601F0A0FD72786B49204601F0D5
:103D50009BFD6A49204604F08DFFB21D2CA9D7F8BF
:103D6000AC04FCF7D9FF2CA9204604F083FF64497A
:103D7000204604F07FFFF278624B204653F8221071
:103D800004F078FF6049204604F074FF72795F4BBD
:103D9000204653F8221004F06DFF5D49204604F0E0
:103DA00069FFF27B5B4B204653F8221004F062FF60
:103DB0005949204604F05EFF327C584B204653F8A8
:103DC000221004F057FF5649204604F053FF727C3E
:103DD000544B204653F8221004F04CFFB27C3AB109
:103DE00051492CA801F050FD20462CA904F042FFB7
:103DF000F27C3AB14D492CA801F046FD20462CA991
:103E000004F038FF4A49204604F034FF1022F169DB
:103E1000204605F0E3FC2046464904F02BFF96F8C7
:103E20002C30002B48D04449204604F023FF204684
:103E3000424904F01FFF96F82D30002B3ED03E493A
:103E4000204604F017FF706903F0F8FC02460B46A9
:103E50002CA83B4901F018FD2CA9204604F00AFFCC
:103E6000B56902F0BAFDA0F5A830A0F5C070854292
:103E700012D93449204604F0FDFE334BB269334970
:103E800000931EA8002302F049FD20461E9904F06D
:103E9000F1FE1EA802F057FA21462CA802F09DFA66
:103EA0002CA902A802F0EEFA2CA802F04CFA02A902
:103EB0002CA802F0DCFA43E52549B5E72449BFE721
:103EC0002A462046234901F0DFFCE5E738030020BD
:103ED0001BCB0A08B9CA0A08C004002027CB0A086D
:103EE00033CB0A0863CB0A084DCB0A087ECB0A08FD
:103EF00092CB0A08B5CB0A08C0CB0A08CBCB0A087C
:103F0000D2CB0A0858000020DCCB0A084C00002065
:103F1000E5CB0A0864000020ECCB0A08440000202E
:103F2000F5CB0A0838000020FECB0A080DCC0A08A1
:103F30001CCC0A0824CC0A08EBD30A082FCC0A08A8
:103F40003BCC0A084BCC0A0858CC0A08500B00207E
:103F50008ACF0A08A7CB0A08240A00206C48E9B2D5
:103F6000FDF780F880B301232A466A49437133A8DC
:103F700001F08AFCD7E6E9B26548FDF773F801461F
:103F800010B300226448FCF72BFD2A466349EEE794
:103F90005F48E9B2FDF766F8B0B15FFA89F3022B2A
:103FA00098BF43742A464B465D49B9E65848E9B282
:103FB000FDF758F840B15FFA89F3012B98BF0374FD
:103FC0002A464B465749ABE62A465749CFE7504861
:103FD000E9B2FDF747F8D0B14B462A46534980F87D
:103FE000129033A801F050FC33A92CA802F0F5F987
:103FF00001222CAB1146A6E44548E9B2FDF732F8A0
:1040000028B14B462A464A4980F81390E9E72A46E8
:104010002046454901F038FCE6E731463C48FDF7CB
:10402000A3FEC2E4434933A804F04AFE33A9CFE417
:104030003748FEF731F800283FF48BAC3E49BAE42C
:10404000EDB2002229463D4801F096F829460822A3
:104050002F48FDF72BFB3A49D1E4384801F0C0F86E
:1040600038490646204604F02BFE0125DFF8E8809B
:10407000DFF8C890DFF8E4A07310DEB2DB075FFA68
:1040800085FB18D52A4641461EA801F0FDFB1EA956
:10409000204604F0EFFD5A4649462CA801F08AF864
:1040A0002C99204604F0E6FD2CA802F04CF951466C
:1040B000204604F0DFFD0135072DDDD175E4EDB2BA
:1040C000012229461D4801F057F8294607221048C9
:1040D000FDF7ECFA1C4992E431461C4801F090F8D7
:1040E00063E4E9B209220A48FDF7E0FA184986E4D8
:1040F0001849304602F071F9384633460122002152
:10410000FDF708F9304602F01EF9002522E400BF51
:104110003803002062CC0A08080A002077CC0A087D
:1041200090CC0A08A8CC0A08A7CB0A08BBCC0A087E
:10413000D6CC0A08F0CC0A0804CD0A08340A0020BC
:1041400010CD0A0821CD0A082BCD0A08000B00204B
:104150003BCD0A084ACD0A082AC00A08B5C10A0898
:10416000F0B5044695B0084602F05AFA94F8803447
:104170000646022B009004F1040718D92C4905A823
:1041800002F02BF900220025114605AB2046FDF771
:10419000C1F805A802F0D7F82046A168FEF77AFD1D
:1041A000C4E90257C4E90475284615B0F0BDE568B6
:1041B000BD4223D02B699E421BD102F025FD1D4933
:1041C00002F02FF805F1140105A802F050F905A935
:1041D0002046FFF707FA054605A802F0B4F869463D
:1041E0002046FFF7A9F902F00FFD134902F019F874
:1041F000DAE7284603F056F80546D9E732460F4974
:1042000005A801F041FB94F8803405A9013384F836
:10421000803401A802F0E1F800222046114601ABEB
:10422000FDF778F801A802F08EF80025BCE700BF82
:10423000AFC70A085FCD0A086FCD0A087ECD0A080D
:1042400070B51646044601228B680D1D53B13068C7
:104250001A691D469042B5BF9868D86801220022AD
:104260000346F3E792B1CA68AA4203D1C4E9003514
:10427000204670BD284603F03BF8336802699A4235
:104280004FF00003F2DBC4E90003F1E72846F4E74E
:104290002DE9F74F00F10408064689464446856833
:1042A00055B1D9F800302A699A42BABFEB68254661
:1042B000AB682C461D46F3E7A04504D0D9F8002092
:1042C00023699A4232DA2420FBF7E7FED9F800305E
:1042D00000F1140903610746384900F1100A484605
:1042E00002F07BF8A04526D1736923B132693B699E
:1042F000116999420ADB524631466846FFF7A0FF32
:10430000DDE90042002A51D0002C4DD190454BD020
:10431000386913699842ACBF0020012043463946F2
:1043200002F0E8FF7369013373613C4604F1140045
:1043300003B0BDE8F08FD7F810B023699B4518DAB9
:10434000F3689C4208D0204602F0D2FF03699B45E7
:1043500005DDC3685BB9044622461C46D2E75246D7
:1043600031466846FFF76CFFDDE90034F4E7234689
:10437000F2E71BDD326994420AD0204602F092FF38
:10438000036905469B4505DAE3685BB922461D468D
:104390002C46B7E7524631466846FFF751FFDDE944
:1043A0000052F5E70246F3E70120B7E7484601F07F
:1043B000CAFF3846FBF775FE2746B6E7B6C10A08BE
:1043C00030B58FB0054601A80C4602F050F801A8A0
:1043D00002F0EFF82549019809AA01F065FA9DF865
:1043E00024304E2B3ED0592B3ED1214B93F81A311D
:1043F000012B0CBF1F492049204602F04BF842F226
:104400000F714FF47A7001F06FFF009002F0FCFB27
:104410001A4901F0F3FE02F0F7FB0A220099FDF7BA
:10442000E1FE69462846FFF733FF214602F010F807
:10443000009A134909A801F027FA09A905A801F073
:10444000CCFF4FF0FF320021284605ABFCF762FF9E
:1044500005A801F078FF012401A801F074FF2046AF
:104460000FB030BD0749C7E70024F5E7A1C10A082E
:10447000380300209BCD0A089FCD0A08A3CD0A0867
:10448000ACCD0A084DBE0A0830B50D4693B034498C
:10449000044601A801F0A1FF0DAA3249286801F0E5
:1044A00003FA0DA905A801F098FF05A802F081F80C
:1044B0000323002205A909A802F052F809A905A8BA
:1044C00001F0E0FF09A801F03EFF01A905A802F0F4
:1044D00009F8254805A902F040F8431C3ED01728EA
:1044E00014DC294609A801F0C2FF204609A9FFF7FC
:1044F00079F8044609A801F026FF05A801F023FF7A
:1045000001A801F020FF204613B030BD23281DDC98
:104510000023009369462046FFF7BAFE294601F0C2
:1045200097FF009A11490DA801F0AEF90DA909A84D
:1045300001F053FF20464FF0FF32002109ABFCF79A
:10454000E9FE09A801F0FFFE0124D6E742F20F714F
:104550004FF47A7001F0C8FE0090DBE70024CCE74E
:104560008BC70A08A1C10A0828030020ACCD0A089D
:1045700070B51646044601228B680D1D53B1306894
:104580001A691D469042B5BF9868D868012200227A
:104590000346F3E792B1CA68AA4203D1C4E90035E1
:1045A000204670BD284602F0A3FE336802699A4295
:1045B0004FF00003F2DBC4E90003F1E72846F4E71B
:1045C00000232DE9F04F87B00293D0F878310546EB
:1045D000009100F5B47973B1D0F870310293029B69
:1045E0004B4508D01B7D009A934200F09E8002A8A4
:1045F000FDF7B2FBF3E74C46D5F87C314C4A01336A
:10460000D5F86C61C5F87C31536046B1326993428C
:10461000C6BFF2682646B26834461646F5E7A1459D
:1046200002D02269934235DA1820FBF736FD0023C9
:10463000D5F87CB1A145804605F5B27A00F11002AB
:10464000C0F810B003752CD1D5F8783123B1D5F866
:1046500074713B695B4509DB514604A8FFF788FF8D
:10466000DDE90447002F5BD0002C57D1B94555D068
:10467000D8F810003B699842ACBF002001204B469F
:104680003A46414602F036FED5F878310133C5F896
:1046900078314446009B2375D5F87C0107B0BDE80E
:1046A000F08F236901925B4519DDD5F870319C428A
:1046B00009D0204602F01CFE0369019A5B4505DA29
:1046C000C36853B9044627461C46CBE7514604A8A5
:1046D000FFF74EFFDDE90434F5E72346F3E71FDA81
:1046E000D5F874710394BC420DD003A8FDF734FBD8
:1046F0000068D8F810300069019A834205DAE6684C
:1047000056B1039E37463446ACE7514604A8FFF73E
:104710002FFFDDE90467F6E72746F4E70120AEE75F
:104720004046FBF7BEFCA046B3E70020B6E700BF5B
:10473000F40400202DE9F04F0026054600F5AC7783
:10474000A7B080F8816138460191FEF7C7F8C5E946
:1047500056774048C5F86061FEF7D7F8DFF8F4A057
:10476000D5F84C41DFF8F8B005F5A6739C4217D098
:1047700004F1080949460EA8FCF748F94946504695
:10478000FCF76EF98046002860D095F81831012BAF
:104790000AD1637E022B07D015A801F0D4FD0026B4
:1047A000304627B0BDE8F08F95F81A3113B9637E13
:1047B000002B46D094F834305BB32846217AFFF7BB
:1047C000FFFE30B3244902A801F007FE616A02A887
:1047D00001F08CFED5F87C21594606A801F054F86A
:1047E00006A902A801F082FE02A91AA801F03FFE64
:1047F0004FF0FF3202211AAB1848FCF78BFD1AA8C4
:1048000001F0A1FD012302A884F8353001F09BFDE1
:10481000464601233946384684F834300EAAFEF75E
:104820005FFA94F836300BB9019B53B149461AA888
:10483000FCF7ECF850461AA9FEF7E0FA21A801F0BF
:1048400082FD15A801F07FFD24688DE784F834000F
:10485000E7E700BF080A0020BECD0A08380500209F
:10486000CECD0A0830B58DB03849684601F0B5FDA7
:10487000374C3848FDF772FF02F0C6F9364901F0AF
:10488000BDFC94F81831012B03D900212046FFF715
:1048900051FF2F48FDF76CF8431C05461FD02F49E8
:1048A00004A801F09AFDEAB2294908A8FCF754FAD5
:1048B00008A904A801F016FE08A801F044FD04A907
:1048C00008A801F0D4FD01220221224808ABFCF720
:1048D00021FD08A801F037FD04A801F034FD1C48B3
:1048E0001F4DFCF77BFB1B48FCF7FBFC2B685A1E9B
:1048F000002B2A6019DCFDF785F900232B6094F862
:104900001831042B02D11248FEF7ACF9154B186987
:1049100002F094FF144BC3E90001FA2001F004F8FF
:10492000684601F010FD0DB030BD026A036B9A427B
:10493000E5D002F069F90D4901F060FC02F064F97C
:104940000A222968FDF74EFCD9E700BFB6C10A0864
:1049500038030020380500208BC70A08DCCD0A0880
:1049600034050020080A0020D80A0020EDCD0A08EE
:1049700038B504460D46AC4205D004F1080001F0FC
:10498000E2FC1834F7E738BD2DE9F04F91B06D46E1
:10499000064600F108030FCB04AC85E80F0006F1D2
:1049A00018030FCB84E80F0095E80F0008AF87E8E5
:1049B0000F0094E80F0010AC04E90F00DDE90AB91C
:1049C000DDE90C7A089DDDF83C8009F104044445DA
:1049D00006D254F8040B00F5FC71FFF7C9FFF6E7A7
:1049E000C1450ED059462846FFF7C2FF394650460A
:1049F000FFF7BEFF3046FEF760F9304611B0BDE864
:104A0000F08F39462846F3E710B504461830FFF713
:104A1000BBFF2046A168FEF73DF9204610BD00000F
:104A20002DE9F04700244FF001089D4B86B01C7023
:104A30009C4B9D4983F800809C4801F0CEFC9C4D26
:104A40009C4A9D49994802F0D9FB9C48FBF737FBEB
:104A500021462846FBF7A9FB994B9A4E1B689A48BA
:104A6000C5F80E301F23AB7400F08AFA914A9749BB
:104A7000954802F0C3FB331D21460620C6E90133E9
:104A80003560F46002F0CAFA2146062002F0C6FA48
:104A90002146062002F0C2FA4146072002F0BEFA83
:104AA000844A8B493046347602F0A8FB894800F0EE
:104AB00099FB894B894D1969894800F039F92B1DFB
:104AC000C5E903330823C5E90544EB61C5E908449A
:104AD000C5E90A44C5E90C44C5E90E442C71AC6033
:104AE0002020FBF7DAFAEF69A861013F27FA08F7FF
:104AF00000EB870A81464FF4FC70FBF7CEFA00F515
:104B0000FC73C5E90D03AB62C5F82CA06862C5F85B
:104B10003CA028622863C5F89044C5F89444C5F8C1
:104B20009844C5F89C44C5F8A04449F8270000F013
:104B300051FC6C49C5F8A80405F1400004F0C0F828
:104B4000694905F1540004F0BBF8684905F16800B3
:104B500004F0B6F8664905F17C0004F0B1F821468E
:104B60000720C5F8AC64C5F88C44C5F87C4485F8CA
:104B70008044C5F88844C5F8844485F8A48402F0CC
:104B80005EFA28465B4D4B4A5B4902F037FB4649CB
:104B900005F59C7001F021FC05F5A673C5E95333BA
:104BA00005F5AC73C5E9563305F5B473C5E95C3357
:104BB0003D49C5F85441C5F8604185F86841C5F8DC
:104BC0006C41C5F8784105F5C47001F006FC364922
:104BD00005F5CE7001F001FCA5F88041C5F88441CF
:104BE00040F21110FBF759FA324AC5F81401C5E931
:104BF0006C442846414985F89841C5F8B84102F00F
:104C0000FDFA3F493F4801F0E8FB2A4A2A493D485E
:104C100002F0F4FA3C4B3D4D02933D4B2846059380
:104C20003C4B02A904934EF6602340F8043BFCF78A
:104C300098FC1420384902F0E8FA28B1C0E9004491
:104C4000C0E90244047444746861A0B1334B092282
:104C5000C0E902354FF400733149CDE90003314B0F
:104C6000043000F05FFB30B96B691B7C4BB901204D
:104C700000F098FBF8E7002368696B6108B1FBF767
:104C8000B8FD00F0A7FB284B186002A8FBF7A8FDB1
:104C9000084A26491D4802F0B1FA06B0BDE8F0877F
:104CA0002403002025030020B6C10A08240A00209E
:104CB000EC0900202003002047630A08300500208B
:104CC0001CCF0A08080A0020340A0020CB060A0874
:104CD000FD280A08000B0020F404002038050020FD
:104CE0000805002003CE0A0810CE0A081CCE0A08C8
:104CF00027CE0A0838030020094A0A0841290A0871
:104D000032CE0A0828030020DD1C0A08E80A002029
:104D1000B1060A08B5060A0888D10A0811710A08FE
:104D2000B7CE0A0839150A080C10002015080A0821
:104D300010B54160044601F050FE002300F56160AB
:104D4000A060C4E9033320466361237610BD0123CC
:104D50000370704710B5044601F03FFE002300F5D4
:104D60006160C4E90333A06010BD41607047012356
:104D700081EAE172A2EBE17203FA02F243680029D0
:104D8000CCBF134393434360704738B50025057685
:104D9000044601F022FE00F56160C4E902052561C8
:104DA00038BD38B5182994BF0C460024054601F0DB
:104DB00014FE4FF4616101FB0401696138BD406874
:104DC0007047000030B50D4687B01049044601F029
:104DD00004FB2B7823B10E49204601F087FB10E03D
:104DE000AA688AB10B4B0C491B6802A80093D31721
:104DF00001F094FD204602A901F074FB02A801F025
:104E0000A2FA204607B030BD0449E5E72ACF0A08D8
:104E100039CF0A08E0000020500B002043CF0A08D9
:104E200030B50D4687B00E49044601F0D6FAEA685F
:104E30008AB10C4B0C491B6802A80093D31701F0F0
:104E40006DFD204602A901F04DFB02A801F07BFA9E
:104E5000204607B030BD2046044901F01BFBF7E7B0
:104E60004BCF0A08E0000020500B0020B6C10A0812
:104E700030B50D4687B00E49044601F0AEFA2A69F6
:104E80008AB10C4B0C491B6802A80093D31701F0A0
:104E900045FD204602A901F025FB02A801F053FAC6
:104EA000204607B030BD2046044901F0F3FAF7E789
:104EB00058CF0A08E0000020500B0020B6C10A08B5
:104EC0002DE9F0470C468CB02849054601F085FADB
:104ED0002649684601F081FA244904A801F07DFAC8
:104EE000676800242646DFF88C80DFF88C90DFF8B6
:104EF0008CA0FB0720D51EB128461D4901F0F6FA0B
:104F00000B2C28DC514604A801F0C4FA64BB0C2623
:104F10003246414608A801F093FB08A9684601F013
:104F2000B1FA08A801F00FFA6946284601F0DAFA4A
:104F3000284604A901F0D6FA0134182C4FEA570785
:104F4000D7D104A801F0FFF9684601F0FCF9284622
:104F50000CB0BDE8F087494604A801F09BFA0C2C80
:104F6000D5D0A4F10C06D3E72646D1E7B6C10A088E
:104F700066CF0A08B2CB0A086BCF0A0868CF0A08C6
:104F8000F8B5002304460B4F436000F10C0500F117
:104F90008C0628463946103501F01FFAAE42F8D18A
:104FA00000236372A372636001F017FDC4F88C00E4
:104FB0002046F8BDB6C10A0870B504460D460A265B
:104FC00001720121032002F03AF80121022002F0CF
:104FD00036F84FF4FA7000F0A7FC0021032002F02D
:104FE0002EF80021022002F02AF84FF4FA7000F0A7
:104FF0009BFC013EE5D1042D66D8DFE805F0031BDC
:105000001F274B0001F000FE384901F0F7F801F0CE
:10501000FBFD374901F005F90021032002F00FF8EC
:105020000021022002F00BF800210620BDE87040AC
:1050300002F005B801F0E8FD2E49E6E701F0E4FDD5
:105040002D4901F0EEF801210220EFE701F0DCFD2F
:105050002A4901F0D3F801F0D7FD05461022617A04
:1050600001F0E9F8284601F0D0F8637A002513F042
:10507000030F14BF022603263046217901F0DFFF1B
:105080006368C8200133012BC8BF2B46636000F062
:105090004BFCF1E701F0B8FD194901F0AFF801F060
:1050A000B3FD05460A22174901F0C5F8284601F06C
:1050B000ACF801F092FC0021C4F88C00022001F051
:1050C000BEFF01210320B1E701F09EFD0E4901F072
:1050D00095F801F099FD0546217A0A2201F0ABF816
:1050E0002846BDE8704001F090B800BF6ECF0A08B6
:1050F0007DCF0A088CCF0A089ACF0A08A8CF0A08E1
:10510000B2CF0A08FF000003BECF0A08437A194352
:1051100041727047407A7047407A80F00200C0F3D5
:105120004000704710B5044601F057FCD4F88C30AD
:10513000C01A10BD37B50D46FFF7F4FF0C4C3C21EB
:1051400090FBF4F204FB12044FF4616094FBF0F363
:1051500000FB134090FBF1F401FB14000549CDE97D
:105160000040284600F090FB284603B030BD00BF49
:1051700080510100D6CF0A0810B5012404FA01F1CC
:1051800090F90A3049B21AB10B43DBB2837210BDF9
:1051900023EA0103F9E7807A084100F00100704733
:1051A0000B46072B114604D800EB03100C3001F01E
:1051B0004FB97047072A10B5044604D9054901F0D4
:1051C0000CF9204610BD01EB02110C3101F04FF932
:1051D000F7E700BFB6C10A080170704781727047D7
:1051E000807A7047044A0549C260426182610022A8
:1051F0000161C2610262704700C0794400C079C495
:1052000030B500230C46054695B00B702046284962
:1052100003F030FDA86802F011FB02460B46684619
:10522000244900F031FB6946204603F023FDE8687D
:1052300002F004FB02460B4668461F4900F024FBBF
:105240006946204603F016FD286902F0F7FA024687
:105250000B466846194900F017FB6946204603F0E3
:1052600009FD1749686903F015F9E8B915492046A1
:1052700003F000FD686902F0E1FA02460B46684659
:105280000D4900F001FB6946204603F0F3FCA869D4
:1052900002F0D4FA02460B466846084900F0F4FAD8
:1052A0006946204603F0E6FC204615B030BD00BF3D
:1052B000E9CF0A08F9CF0A0806D00A0813D00A086D
:1052C00000C0794420D00A08C36843610369836140
:1052D000024BC360024B0361704700BF00C07944BA
:1052E00000C079C470B504460D4601F076FB20601D
:1052F000267901F083FB864202DD2046FFF7E4FFBA
:1053000001F07CFB29462071A560206903F0CCF8F0
:1053100000B125612946E06803F0E4F800B1E560DA
:1053200070BD000008B5024B1B685B68019308BDA7
:10533000D001060808B5024B1B689B68019308BDA5
:10534000D001060808B5024B1B681B69019308BD14
:10535000D001060808B5024B1B685B69019308BDC4
:10536000D001060808B5024B1B685B6C019308BDB1
:10537000D001060808B5024B1B689B6C019308BD61
:10538000D001060808B5024B1B68DB6E019308BD0F
:10539000D001060808B5024B1B685B68019308BD85
:1053A0009C01060808B5024B1B689B68019308BD69
:1053B0009C01060808B5024B1B68DB68019308BD19
:1053C0009C01060808B5024B1B681B69019308BDC8
:1053D0009C01060808B5024B1B685B69019308BD78
:1053E0009C01060808B5024B1B689B6A019308BD27
:1053F0009C01060808B5024B1B681B6B019308BD96
:105400009C01060808B5024B1B685B6C019308BD44
:105410009C01060808B5024B1B689B6C019308BDF4
:105420009C01060808B5024B1B689B6D019308BDE3
:105430009C01060808B5024B1B685B6E019308BD12
:105440009C01060808B5024B1B689B68019308BDC8
:10545000B001060808B5024B1B68DB68019308BD64
:10546000B001060808B5024B1B681B69019308BD13
:10547000B001060808B5024B1B685B69019308BDC3
:10548000B001060808B5024B1B68DB6C019308BD30
:10549000AC01060808B5024B1B689B6D019308BD63
:1054A000AC01060808B5024B1B68DB6D019308BD13
:1054B000AC01060808B5024B1B681B6E019308BDC2
:1054C000AC01060808B5024B1B685B6E019308BD72
:1054D000AC01060808B5024B1B689B6E019308BD22
:1054E000AC01060808B5024B1B68DB6E019308BDD2
:1054F000AC01060808B5024B1B681B6F019308BD81
:10550000AC01060808B5024B1B685B6F019308BD30
:10551000AC01060808B5034B1B68D3F88030019333
:1055200008BD0000AC01060808B5034B1B68D3F8A2
:105530009030019308BD0000AC01060808B5024B8D
:105540001B68DB69019308BDB401060808B5024B6E
:105550001B681B6A019308BDB401060808B5024B1D
:105560001B689B69019308BDC401060808B5024B7E
:105570001B685B6A019308BDC401060808B5024BAD
:105580001B689B6A019308BDC401060808B5024B5D
:105590001B68DB6A019308BDC401060808B5024B0D
:1055A0001B681B6B019308BDC401060808B5024BBC
:1055B0001B685B6B019308BDC401060808B5024B6C
:1055C0001B689B6B019308BDC401060808B5024B1C
:1055D0001B681B6C019308BDC401060808B5024B8B
:1055E0001B681B68019308BDD801060808B5024B6B
:1055F0001B685B68019308BDD801060808B5024B1B
:105600001B681B69019308BDD801060808B5024B49
:105610001B685B69019308BDD801060808B5024BF9
:105620001B689B69019308BDD801060808B5024BA9
:105630001B68DB69019308BDD801060808B5024B59
:105640001B681B6A019308BDD801060808B5024B08
:105650001B689B6C019308BDC001060808B5024B8E
:105660001B681B68019308BDA401060808B5024B1E
:105670001B685B68019308BDA401060808B5024BCE
:105680001B685B69019308BDA401060808B5024BBD
:105690001B681B6A019308BDA401060808B5024BEC
:1056A0001B68DB6C019308BDA401060808B5024B1A
:1056B0001B685B6D019308BDA401060808B5024B89
:1056C0001B689B6D019308BDA401060808B5034B38
:1056D0001B68D3F89030019308BD0000A4010608B0
:1056E00008B5034B1B68D3F89C30019308BD00003C
:1056F000A401060808B5034B1B68D3F8B430019326
:1057000008BD0000A401060808B5024B1B681B6811
:10571000019308BDCC01060808B5024B1B685B6805
:10572000019308BDCC01060808B5024B1B689B68B5
:10573000019308BDCC01060808B5024B1B685B69E4
:10574000019308BDCC01060808B5024B1B681B6A13
:10575000019308BDCC01060808B5024B1B685B6AC3
:10576000019308BDCC01060808B5024B1B68DB6A33
:10577000019308BDCC01060808B5024B1B681B6BE2
:10578000019308BDCC01060808B5024B1B68DB6B12
:10579000019308BDCC01060808B5024B1B685B6885
:1057A000019308BDC801060808B5024B1B689B6839
:1057B000019308BDC801060808B5024B1B68DB68E9
:1057C000019308BDC801060808B5024B1B681B6998
:1057D000019308BDC801060808B5024B1B685B6948
:1057E000019308BDC801060808B5024B1B689B69F8
:1057F000019308BDC801060808B5024B1B68DB69A8
:10580000019308BDC801060808B5024B1B681B6A56
:10581000019308BDC801060808B5024B1B681B6B45
:10582000019308BDC801060808B5024B1B685B6BF5
:10583000019308BDC801060808B5024B1B681B6C24
:10584000019308BDC801060808B5024B1B685B6CD4
:10585000019308BDC801060808B5024B1B681B6808
:10586000019308BDA001060808B5024B1B685B68E0
:10587000019308BDA001060808B5024B1B689B6890
:10588000019308BDA001060808B5024B1B68DB6840
:10589000019308BDA001060808B5024B1B681B69EF
:1058A000019308BDA001060808B5024B1B685B699F
:1058B000019308BDA001060808B5024B1B689B694F
:1058C000019308BDA001060808B5024B1B68DB69FF
:1058D000019308BDA001060808B5024B1B681B6AAE
:1058E000019308BDA001060808B5024B1B685B6A5E
:1058F000019308BDA001060808B5024B1B68DB6ACE
:10590000019308BDA001060808B5024B1B681B6B7C
:10591000019308BDA001060808B5024B1B685B6C2B
:10592000019308BDA00106080021FFF7A7BE10B52E
:10593000836804460BB901F019FEC3689847A36851
:105940001BB103222146204698472046BDE810405F
:10595000102101F058BC70470020704710B5044674
:10596000102101F050FC204610BD08B5FFF7F6FFEE
:1059700008BD002230B54FF69C74026084808D888B
:105980008C800C68858004600A6030BD10B50446C8
:105990000068FFF769FF204610BD38B5C468F4B150
:1059A0002378022B03D104F10C00FFF7EFFF6568A9
:1059B00035B12846FAF714FF1021284601F023FCE0
:1059C000A56835B12846FAF70BFF1021284601F0EB
:1059D0001AFC2046BDE83840142101F014BC38BD43
:1059E0001FB50446684600F0F8FCA3680BB901F047
:1059F000BDFDE3686946204698470446684600F0C6
:105A0000A2FC204604B010BD1FB500231024CDE930
:105A10000201019269461A461846ADF80230ADF807
:105A20000040FFF779FE04B010BD0B68036013B1AE
:105A30005A6801325A60704773B50E46044656F8EC
:105A4000043B0D4601A831460093FFF7EEFF009B93
:105A5000019A23600023626001A801930093FBF781
:105A60000FFE3046FBF70CFE2846082101F0CBFB69
:105A7000204602B070BD13B56C460B46024603C803
:105A800084E8030093E8030082E8030094E803003D
:105A900083E8030002B010BD826810B50AB901F0B6
:105AA00065FDC368BDE81040184708B5006800F1FF
:105AB0001001FFF7F1FF08BD826810B50AB901F0C7
:105AC00055FDC368BDE81040184708B5006800F1EF
:105AD0001001FFF7F1FF08BD38B50023044603604D
